{
  "contractName": "FundMeCoin",
  "abi": [
    {
      "constant": true,
      "inputs": [
        {
          "internalType": "address",
          "name": "celoAddress",
          "type": "address"
        }
      ],
      "name": "getAccount",
      "outputs": [
        {
          "components": [
            {
              "internalType": "string",
              "name": "nickName",
              "type": "string"
            },
            {
              "internalType": "address",
              "name": "celoAddress",
              "type": "address"
            },
            {
              "internalType": "uint256",
              "name": "dontaed",
              "type": "uint256"
            },
            {
              "internalType": "uint256",
              "name": "raised",
              "type": "uint256"
            },
            {
              "internalType": "bool",
              "name": "created",
              "type": "bool"
            }
          ],
          "internalType": "struct FundMeCoin.Account",
          "name": "",
          "type": "tuple"
        }
      ],
      "payable": false,
      "stateMutability": "view",
      "type": "function"
    },
    {
      "constant": false,
      "inputs": [
        {
          "components": [
            {
              "internalType": "string",
              "name": "nickName",
              "type": "string"
            },
            {
              "internalType": "address",
              "name": "celoAddress",
              "type": "address"
            },
            {
              "internalType": "uint256",
              "name": "dontaed",
              "type": "uint256"
            },
            {
              "internalType": "uint256",
              "name": "raised",
              "type": "uint256"
            },
            {
              "internalType": "bool",
              "name": "created",
              "type": "bool"
            }
          ],
          "internalType": "struct FundMeCoin.Account",
          "name": "acc",
          "type": "tuple"
        }
      ],
      "name": "createAccount",
      "outputs": [],
      "payable": false,
      "stateMutability": "nonpayable",
      "type": "function"
    },
    {
      "constant": false,
      "inputs": [
        {
          "components": [
            {
              "internalType": "string",
              "name": "nickName",
              "type": "string"
            },
            {
              "internalType": "string",
              "name": "id",
              "type": "string"
            },
            {
              "internalType": "address",
              "name": "celoAddress",
              "type": "address"
            },
            {
              "internalType": "uint32",
              "name": "totalRaised",
              "type": "uint32"
            },
            {
              "internalType": "string",
              "name": "content",
              "type": "string"
            },
            {
              "internalType": "uint16",
              "name": "upVotes",
              "type": "uint16"
            }
          ],
          "internalType": "struct FundMeCoin.FundRaiser",
          "name": "fundRaiser",
          "type": "tuple"
        }
      ],
      "name": "createFundRaiser",
      "outputs": [],
      "payable": false,
      "stateMutability": "nonpayable",
      "type": "function"
    },
    {
      "constant": true,
      "inputs": [],
      "name": "getAccountFundRaisers",
      "outputs": [
        {
          "components": [
            {
              "internalType": "string",
              "name": "nickName",
              "type": "string"
            },
            {
              "internalType": "string",
              "name": "id",
              "type": "string"
            },
            {
              "internalType": "address",
              "name": "celoAddress",
              "type": "address"
            },
            {
              "internalType": "uint32",
              "name": "totalRaised",
              "type": "uint32"
            },
            {
              "internalType": "string",
              "name": "content",
              "type": "string"
            },
            {
              "internalType": "uint16",
              "name": "upVotes",
              "type": "uint16"
            }
          ],
          "internalType": "struct FundMeCoin.FundRaiser[]",
          "name": "",
          "type": "tuple[]"
        }
      ],
      "payable": false,
      "stateMutability": "view",
      "type": "function"
    },
    {
      "constant": true,
      "inputs": [
        {
          "internalType": "address",
          "name": "celoAddress",
          "type": "address"
        }
      ],
      "name": "getAccountFundRaisers",
      "outputs": [
        {
          "components": [
            {
              "internalType": "string",
              "name": "nickName",
              "type": "string"
            },
            {
              "internalType": "string",
              "name": "id",
              "type": "string"
            },
            {
              "internalType": "address",
              "name": "celoAddress",
              "type": "address"
            },
            {
              "internalType": "uint32",
              "name": "totalRaised",
              "type": "uint32"
            },
            {
              "internalType": "string",
              "name": "content",
              "type": "string"
            },
            {
              "internalType": "uint16",
              "name": "upVotes",
              "type": "uint16"
            }
          ],
          "internalType": "struct FundMeCoin.FundRaiser[]",
          "name": "",
          "type": "tuple[]"
        }
      ],
      "payable": false,
      "stateMutability": "view",
      "type": "function"
    },
    {
      "constant": false,
      "inputs": [
        {
          "internalType": "uint32",
          "name": "cUSD",
          "type": "uint32"
        },
        {
          "internalType": "string",
          "name": "id",
          "type": "string"
        },
        {
          "internalType": "address",
          "name": "celoAddress",
          "type": "address"
        }
      ],
      "name": "updateFund",
      "outputs": [],
      "payable": false,
      "stateMutability": "nonpayable",
      "type": "function"
    }
  ],
  "bytecode": "0x608060405234801561001057600080fd5b50611987806100206000396000f3fe608060405234801561001057600080fd5b50600436106100625760003560e01c8063054c39b5146100675780636a4b7f6d146100835780636e9232c9146100a1578063f88e88ce146100d1578063fbcbc0f1146100ed578063fd5492fb1461011d575b600080fd5b610081600480360361007c91908101906113da565b610139565b005b61008b6103af565b60405161009891906116e4565b60405180910390f35b6100bb60048036036100b69190810190611370565b610690565b6040516100c891906116e4565b60405180910390f35b6100eb60048036036100e6919081019061141b565b6109b0565b005b61010760048036036101029190810190611370565b610d37565b6040516101149190611706565b60405180910390f35b61013760048036036101329190810190611399565b610eb6565b005b600281908060018154018082558091505090600182039060005260206000209060050201600090919290919091506000820151816000019080519060200190610183929190610fef565b5060208201518160010190805190602001906101a0929190610fef565b5060408201518160020160006101000a81548173ffffffffffffffffffffffffffffffffffffffff021916908373ffffffffffffffffffffffffffffffffffffffff16021790555060608201518160020160146101000a81548163ffffffff021916908363ffffffff160217905550608082015181600301908051906020019061022b929190610fef565b5060a08201518160040160006101000a81548161ffff021916908361ffff16021790555050505060016000826040015173ffffffffffffffffffffffffffffffffffffffff1673ffffffffffffffffffffffffffffffffffffffff168152602001908152602001600020819080600181540180825580915050906001820390600052602060002090600502016000909192909190915060008201518160000190805190602001906102dd929190610fef565b5060208201518160010190805190602001906102fa929190610fef565b5060408201518160020160006101000a81548173ffffffffffffffffffffffffffffffffffffffff021916908373ffffffffffffffffffffffffffffffffffffffff16021790555060608201518160020160146101000a81548163ffffffff021916908363ffffffff1602179055506080820151816003019080519060200190610385929190610fef565b5060a08201518160040160006101000a81548161ffff021916908361ffff16021790555050505050565b60606002805480602002602001604051908101604052809291908181526020016000905b8282101561068757838290600052602060002090600502016040518060c0016040529081600082018054600181600116156101000203166002900480601f01602080910402602001604051908101604052809291908181526020018280546001816001161561010002031660029004801561048f5780601f106104645761010080835404028352916020019161048f565b820191906000526020600020905b81548152906001019060200180831161047257829003601f168201915b50505050508152602001600182018054600181600116156101000203166002900480601f0160208091040260200160405190810160405280929190818152602001828054600181600116156101000203166002900480156105315780601f1061050657610100808354040283529160200191610531565b820191906000526020600020905b81548152906001019060200180831161051457829003601f168201915b505050505081526020016002820160009054906101000a900473ffffffffffffffffffffffffffffffffffffffff1673ffffffffffffffffffffffffffffffffffffffff1673ffffffffffffffffffffffffffffffffffffffff1681526020016002820160149054906101000a900463ffffffff1663ffffffff1663ffffffff168152602001600382018054600181600116156101000203166002900480601f01602080910402602001604051908101604052809291908181526020018280546001816001161561010002031660029004801561064f5780601f106106245761010080835404028352916020019161064f565b820191906000526020600020905b81548152906001019060200180831161063257829003601f168201915b505050505081526020016004820160009054906101000a900461ffff1661ffff1661ffff1681525050815260200190600101906103d3565b50505050905090565b6060600160008373ffffffffffffffffffffffffffffffffffffffff1673ffffffffffffffffffffffffffffffffffffffff168152602001908152602001600020805480602002602001604051908101604052809291908181526020016000905b828210156109a557838290600052602060002090600502016040518060c0016040529081600082018054600181600116156101000203166002900480601f0160208091040260200160405190810160405280929190818152602001828054600181600116156101000203166002900480156107ad5780601f10610782576101008083540402835291602001916107ad565b820191906000526020600020905b81548152906001019060200180831161079057829003601f168201915b50505050508152602001600182018054600181600116156101000203166002900480601f01602080910402602001604051908101604052809291908181526020018280546001816001161561010002031660029004801561084f5780601f106108245761010080835404028352916020019161084f565b820191906000526020600020905b81548152906001019060200180831161083257829003601f168201915b505050505081526020016002820160009054906101000a900473ffffffffffffffffffffffffffffffffffffffff1673ffffffffffffffffffffffffffffffffffffffff1673ffffffffffffffffffffffffffffffffffffffff1681526020016002820160149054906101000a900463ffffffff1663ffffffff1663ffffffff168152602001600382018054600181600116156101000203166002900480601f01602080910402602001604051908101604052809291908181526020018280546001816001161561010002031660029004801561096d5780601f106109425761010080835404028352916020019161096d565b820191906000526020600020905b81548152906001019060200180831161095057829003601f168201915b505050505081526020016004820160009054906101000a900461ffff1661ffff1661ffff1681525050815260200190600101906106f1565b505050509050919050565b60008090505b600280549050811015610b33576060600282815481106109d257fe5b90600052602060002090600502016001018054600181600116156101000203166002900480601f016020809104026020016040519081016040528092919081815260200182805460018160011615610100020316600290048015610a775780601f10610a4c57610100808354040283529160200191610a77565b820191906000526020600020905b815481529060010190602001808311610a5a57829003601f168201915b5050505050905083604051602001610a8f91906116cd565b6040516020818303038152906040528051906020012081604051602001610ab691906116cd565b604051602081830303815290604052805190602001201415610b25578460028381548110610ae057fe5b906000526020600020906005020160020160148282829054906101000a900463ffffffff160192506101000a81548163ffffffff021916908363ffffffff1602179055505b5080806001019150506109b6565b5060008090505b600160008373ffffffffffffffffffffffffffffffffffffffff1673ffffffffffffffffffffffffffffffffffffffff16815260200190815260200160002080549050811015610d31576060600160008473ffffffffffffffffffffffffffffffffffffffff1673ffffffffffffffffffffffffffffffffffffffff1681526020019081526020016000208281548110610bd057fe5b90600052602060002090600502016001018054600181600116156101000203166002900480601f016020809104026020016040519081016040528092919081815260200182805460018160011615610100020316600290048015610c755780601f10610c4a57610100808354040283529160200191610c75565b820191906000526020600020905b815481529060010190602001808311610c5857829003601f168201915b5050505050905083604051602001610c8d91906116cd565b6040516020818303038152906040528051906020012081604051602001610cb491906116cd565b604051602081830303815290604052805190602001201415610d23578460028381548110610cde57fe5b906000526020600020906005020160020160148282829054906101000a900463ffffffff160192506101000a81548163ffffffff021916908363ffffffff1602179055505b508080600101915050610b3a565b50505050565b610d3f61106f565b6000808373ffffffffffffffffffffffffffffffffffffffff1673ffffffffffffffffffffffffffffffffffffffff1681526020019081526020016000206040518060a0016040529081600082018054600181600116156101000203166002900480601f016020809104026020016040519081016040528092919081815260200182805460018160011615610100020316600290048015610e215780601f10610df657610100808354040283529160200191610e21565b820191906000526020600020905b815481529060010190602001808311610e0457829003601f168201915b505050505081526020016001820160009054906101000a900473ffffffffffffffffffffffffffffffffffffffff1673ffffffffffffffffffffffffffffffffffffffff1673ffffffffffffffffffffffffffffffffffffffff16815260200160028201548152602001600382015481526020016004820160009054906101000a900460ff1615151515815250509050919050565b600080826020015173ffffffffffffffffffffffffffffffffffffffff1673ffffffffffffffffffffffffffffffffffffffff16815260200190815260200160002060040160009054906101000a900460ff16610fec5780600080836020015173ffffffffffffffffffffffffffffffffffffffff1673ffffffffffffffffffffffffffffffffffffffff1681526020019081526020016000206000820151816000019080519060200190610f6c929190610fef565b5060208201518160010160006101000a81548173ffffffffffffffffffffffffffffffffffffffff021916908373ffffffffffffffffffffffffffffffffffffffff160217905550604082015181600201556060820151816003015560808201518160040160006101000a81548160ff0219169083151502179055509050505b50565b828054600181600116156101000203166002900490600052602060002090601f016020900481019282601f1061103057805160ff191683800117855561105e565b8280016001018555821561105e579182015b8281111561105d578251825591602001919060010190611042565b5b50905061106b91906110b6565b5090565b6040518060a0016040528060608152602001600073ffffffffffffffffffffffffffffffffffffffff16815260200160008152602001600081526020016000151581525090565b6110d891905b808211156110d45760008160009055506001016110bc565b5090565b90565b6000813590506110ea816118d1565b92915050565b6000813590506110ff816118e8565b92915050565b600082601f83011261111657600080fd5b813561112961112482611755565b611728565b9150808252602083016020830185838301111561114557600080fd5b61115083828461187e565b50505092915050565b600082601f83011261116a57600080fd5b813561117d61117882611781565b611728565b9150808252602083016020830185838301111561119957600080fd5b6111a483828461187e565b50505092915050565b600060a082840312156111bf57600080fd5b6111c960a0611728565b9050600082013567ffffffffffffffff8111156111e557600080fd5b6111f184828501611105565b6000830152506020611205848285016110db565b602083015250604061121984828501611346565b604083015250606061122d84828501611346565b6060830152506080611241848285016110f0565b60808301525092915050565b600060c0828403121561125f57600080fd5b61126960c0611728565b9050600082013567ffffffffffffffff81111561128557600080fd5b61129184828501611105565b600083015250602082013567ffffffffffffffff8111156112b157600080fd5b6112bd84828501611105565b60208301525060406112d1848285016110db565b60408301525060606112e58482850161135b565b606083015250608082013567ffffffffffffffff81111561130557600080fd5b61131184828501611105565b60808301525060a061132584828501611331565b60a08301525092915050565b600081359050611340816118ff565b92915050565b60008135905061135581611916565b92915050565b60008135905061136a8161192d565b92915050565b60006020828403121561138257600080fd5b6000611390848285016110db565b91505092915050565b6000602082840312156113ab57600080fd5b600082013567ffffffffffffffff8111156113c557600080fd5b6113d1848285016111ad565b91505092915050565b6000602082840312156113ec57600080fd5b600082013567ffffffffffffffff81111561140657600080fd5b6114128482850161124d565b91505092915050565b60008060006060848603121561143057600080fd5b600061143e8682870161135b565b935050602084013567ffffffffffffffff81111561145b57600080fd5b61146786828701611159565b9250506040611478868287016110db565b9150509250925092565b600061148e8383611609565b905092915050565b61149f81611818565b82525050565b60006114b0826117bd565b6114ba81856117eb565b9350836020820285016114cc856117ad565b8060005b8581101561150857848403895281516114e98582611482565b94506114f4836117de565b925060208a019950506001810190506114d0565b50829750879550505050505092915050565b6115238161182a565b82525050565b6000611534826117d3565b61153e818561180d565b935061154e81856020860161188d565b80840191505092915050565b6000611565826117c8565b61156f81856117fc565b935061157f81856020860161188d565b611588816118c0565b840191505092915050565b600060a08301600083015184820360008601526115b0828261155a565b91505060208301516115c56020860182611496565b5060408301516115d860408601826116af565b5060608301516115eb60608601826116af565b5060808301516115fe608086018261151a565b508091505092915050565b600060c0830160008301518482036000860152611626828261155a565b91505060208301518482036020860152611640828261155a565b91505060408301516116556040860182611496565b50606083015161166860608601826116be565b5060808301518482036080860152611680828261155a565b91505060a083015161169560a08601826116a0565b508091505092915050565b6116a981611836565b82525050565b6116b881611864565b82525050565b6116c78161186e565b82525050565b60006116d98284611529565b915081905092915050565b600060208201905081810360008301526116fe81846114a5565b905092915050565b600060208201905081810360008301526117208184611593565b905092915050565b6000604051905081810181811067ffffffffffffffff8211171561174b57600080fd5b8060405250919050565b600067ffffffffffffffff82111561176c57600080fd5b601f19601f8301169050602081019050919050565b600067ffffffffffffffff82111561179857600080fd5b601f19601f8301169050602081019050919050565b6000819050602082019050919050565b600081519050919050565b600081519050919050565b600081519050919050565b6000602082019050919050565b600082825260208201905092915050565b600082825260208201905092915050565b600081905092915050565b600061182382611844565b9050919050565b60008115159050919050565b600061ffff82169050919050565b600073ffffffffffffffffffffffffffffffffffffffff82169050919050565b6000819050919050565b600063ffffffff82169050919050565b82818337600083830152505050565b60005b838110156118ab578082015181840152602081019050611890565b838111156118ba576000848401525b50505050565b6000601f19601f8301169050919050565b6118da81611818565b81146118e557600080fd5b50565b6118f18161182a565b81146118fc57600080fd5b50565b61190881611836565b811461191357600080fd5b50565b61191f81611864565b811461192a57600080fd5b50565b6119368161186e565b811461194157600080fd5b5056fea365627a7a72315820728bc281de9e36cdeacc157fa0f8096140d38152ee9be7384f4e89b3ce1f8a236c6578706572696d656e74616cf564736f6c63430005100040",
  "source": "pragma solidity >=0.4.21 <0.6.0;\npragma experimental ABIEncoderV2;\n\ncontract FundMeCoin {\n    struct Account {\n        string nickName;\n        address celoAddress;\n        uint256 dontaed;\n        uint256 raised;\n        bool created;\n    }\n\n    struct FundRaiser {\n        string nickName;\n        string id;\n        address celoAddress;\n        uint32 totalRaised;\n        string content;\n        uint16 upVotes;\n    }\n\n    mapping(address => Account) accounts;\n    mapping(address => FundRaiser[]) accountFundRaisers;\n    FundRaiser[] fundRaisers;\n\n    function getAccount(address celoAddress)\n        public\n        view\n        returns (Account memory)\n    {\n        return accounts[celoAddress];\n    }\n\n    function createAccount(Account memory acc) public {\n        if (!accounts[acc.celoAddress].created) {\n            accounts[acc.celoAddress] = acc;\n        }\n    }\n\n    function createFundRaiser(FundRaiser memory fundRaiser) public {\n        fundRaisers.push(fundRaiser);\n        accountFundRaisers[fundRaiser.celoAddress].push(fundRaiser);\n    }\n\n    function getAccountFundRaisers(address celoAddress)\n        public\n        view\n        returns (FundRaiser[] memory)\n    {\n        return accountFundRaisers[celoAddress];\n    }\n\n    function getAccountFundRaisers() public view returns (FundRaiser[] memory) {\n        return fundRaisers;\n    }\n\n    function updateFund(\n        uint32 cUSD,\n        string memory id,\n        address celoAddress\n    ) public {\n        for (uint256 i = 0; i < fundRaisers.length; i++) {\n            string memory _id = fundRaisers[i].id;\n\n            if (\n                keccak256(abi.encodePacked(_id)) ==\n                keccak256(abi.encodePacked(id))\n            ) {\n                fundRaisers[i].totalRaised += cUSD;\n            }\n        }\n\n        for (uint256 i = 0; i < accountFundRaisers[celoAddress].length; i++) {\n            string memory accId = accountFundRaisers[celoAddress][i].id;\n\n            if (\n                keccak256(abi.encodePacked(accId)) ==\n                keccak256(abi.encodePacked(id))\n            ) {\n                fundRaisers[i].totalRaised += cUSD;\n            }\n        }\n    }\n}\n",
  "sourcePath": "/Users/sameerkashyap/Downloads/celo-dappkit-master/contracts/FundMe.sol",
  "compiler": {
    "name": "solc",
    "version": "0.5.16+commit.9c3226ce.Emscripten.clang"
  },
  "schemaVersion": "3.4.1",
  "updatedAt": "2021-06-20T14:31:28.147Z",
  "networkType": "ethereum",
  "devdoc": {
    "methods": {}
  },
  "userdoc": {
    "methods": {}
  }
}